{
  "_format": "hh-sol-artifact-1",
  "contractName": "AtlasScore",
  "sourceName": "contracts/AtlasScore.sol",
  "abi": [
    {
      "inputs": [],
      "stateMutability": "nonpayable",
      "type": "constructor"
    },
    {
      "anonymous": false,
      "inputs": [
        {
          "indexed": true,
          "internalType": "uint256",
          "name": "agentId",
          "type": "uint256"
        },
        {
          "indexed": false,
          "internalType": "uint256",
          "name": "successCount",
          "type": "uint256"
        },
        {
          "indexed": false,
          "internalType": "uint256",
          "name": "failureCount",
          "type": "uint256"
        },
        {
          "indexed": false,
          "internalType": "uint256",
          "name": "taskVolume",
          "type": "uint256"
        },
        {
          "indexed": false,
          "internalType": "uint256",
          "name": "reliabilityScore",
          "type": "uint256"
        },
        {
          "indexed": true,
          "internalType": "uint256",
          "name": "jobId",
          "type": "uint256"
        }
      ],
      "name": "ScoreUpdated",
      "type": "event"
    },
    {
      "inputs": [],
      "name": "MAX_POSITIVE_CREDIT_PER_PAIR",
      "outputs": [
        {
          "internalType": "uint256",
          "name": "",
          "type": "uint256"
        }
      ],
      "stateMutability": "view",
      "type": "function"
    },
    {
      "inputs": [
        {
          "internalType": "uint256",
          "name": "",
          "type": "uint256"
        }
      ],
      "name": "countedJobs",
      "outputs": [
        {
          "internalType": "bool",
          "name": "",
          "type": "bool"
        }
      ],
      "stateMutability": "view",
      "type": "function"
    },
    {
      "inputs": [],
      "name": "deployer",
      "outputs": [
        {
          "internalType": "address",
          "name": "",
          "type": "address"
        }
      ],
      "stateMutability": "view",
      "type": "function"
    },
    {
      "inputs": [
        {
          "internalType": "uint256",
          "name": "",
          "type": "uint256"
        },
        {
          "internalType": "address",
          "name": "",
          "type": "address"
        }
      ],
      "name": "positivePairCredits",
      "outputs": [
        {
          "internalType": "uint256",
          "name": "",
          "type": "uint256"
        }
      ],
      "stateMutability": "view",
      "type": "function"
    },
    {
      "inputs": [
        {
          "internalType": "uint256",
          "name": "agentId",
          "type": "uint256"
        },
        {
          "internalType": "uint256",
          "name": "jobId",
          "type": "uint256"
        }
      ],
      "name": "recordFailedProof",
      "outputs": [],
      "stateMutability": "nonpayable",
      "type": "function"
    },
    {
      "inputs": [
        {
          "internalType": "uint256",
          "name": "agentId",
          "type": "uint256"
        },
        {
          "internalType": "uint256",
          "name": "jobId",
          "type": "uint256"
        },
        {
          "internalType": "address",
          "name": "creator",
          "type": "address"
        },
        {
          "internalType": "address",
          "name": "agentOwner",
          "type": "address"
        }
      ],
      "name": "recordVerifiedProof",
      "outputs": [],
      "stateMutability": "nonpayable",
      "type": "function"
    },
    {
      "inputs": [
        {
          "internalType": "uint256",
          "name": "",
          "type": "uint256"
        }
      ],
      "name": "scores",
      "outputs": [
        {
          "internalType": "uint256",
          "name": "successCount",
          "type": "uint256"
        },
        {
          "internalType": "uint256",
          "name": "failureCount",
          "type": "uint256"
        },
        {
          "internalType": "uint256",
          "name": "taskVolume",
          "type": "uint256"
        },
        {
          "internalType": "uint256",
          "name": "reliabilityScore",
          "type": "uint256"
        }
      ],
      "stateMutability": "view",
      "type": "function"
    },
    {
      "inputs": [
        {
          "internalType": "address",
          "name": "verifier_",
          "type": "address"
        }
      ],
      "name": "setVerifier",
      "outputs": [],
      "stateMutability": "nonpayable",
      "type": "function"
    },
    {
      "inputs": [],
      "name": "verifier",
      "outputs": [
        {
          "internalType": "address",
          "name": "",
          "type": "address"
        }
      ],
      "stateMutability": "view",
      "type": "function"
    }
  ],
  "bytecode": "0x60a060405234801561001057600080fd5b503373ffffffffffffffffffffffffffffffffffffffff1660808173ffffffffffffffffffffffffffffffffffffffff1681525050608051610f3a6100676000396000818161066901526108820152610f3a6000f3fe608060405234801561001057600080fd5b50600436106100935760003560e01c80635437988d116100665780635437988d1461012157806368a5f7d31461013d578063971f27e11461016d5780639acf18371461018b578063d5f39488146101bb57610093565b806327a7d63e146100985780632b7ac3f3146100b45780632ee691a3146100d25780634e85684c14610105575b600080fd5b6100b260048036038101906100ad919061099c565b6101d9565b005b6100bc61037b565b6040516100c99190610a1d565b60405180910390f35b6100ec60048036038101906100e79190610a38565b61039f565b6040516100fc9493929190610a74565b60405180910390f35b61011f600480360381019061011a9190610ae5565b6103cf565b005b61013b60048036038101906101369190610b4c565b610667565b005b61015760048036038101906101529190610b79565b610836565b6040516101649190610bb9565b60405180910390f35b61017561085b565b6040516101829190610bb9565b60405180910390f35b6101a560048036038101906101a09190610a38565b610860565b6040516101b29190610bef565b60405180910390f35b6101c3610880565b6040516101d09190610a1d565b60405180910390f35b60008054906101000a900473ffffffffffffffffffffffffffffffffffffffff1673ffffffffffffffffffffffffffffffffffffffff163373ffffffffffffffffffffffffffffffffffffffff1614610267576040517f08c379a000000000000000000000000000000000000000000000000000000000815260040161025e90610c67565b60405180910390fd5b6002600082815260200190815260200160002060009054906101000a900460ff166103775760016002600083815260200190815260200160002060006101000a81548160ff021916908315150217905550600060016000848152602001908152602001600020905060018160010160008282546102e49190610cb6565b9250508190555060018160020160008282546103009190610cb6565b9250508190555061031e8160000154826001015483600201546108a4565b816003018190555081837fe8721ae5dce076eccbc3bb8c8f64afff10e31e17c18ecca56411846e79849aea836000015484600101548560020154866003015460405161036d9493929190610a74565b60405180910390a3505b5050565b60008054906101000a900473ffffffffffffffffffffffffffffffffffffffff1681565b60016020528060005260406000206000915090508060000154908060010154908060020154908060030154905084565b60008054906101000a900473ffffffffffffffffffffffffffffffffffffffff1673ffffffffffffffffffffffffffffffffffffffff163373ffffffffffffffffffffffffffffffffffffffff161461045d576040517f08c379a000000000000000000000000000000000000000000000000000000000815260040161045490610c67565b60405180910390fd5b6002600084815260200190815260200160002060009054906101000a900460ff166106615760016002600085815260200190815260200160002060006101000a81548160ff0219169083151502179055508073ffffffffffffffffffffffffffffffffffffffff168273ffffffffffffffffffffffffffffffffffffffff16031561066157600380600086815260200190815260200160002060008473ffffffffffffffffffffffffffffffffffffffff1673ffffffffffffffffffffffffffffffffffffffff1681526020019081526020016000205410156106615760016003600086815260200190815260200160002060008473ffffffffffffffffffffffffffffffffffffffff1673ffffffffffffffffffffffffffffffffffffffff168152602001908152602001600020600082825461059b9190610cb6565b92505081905550600060016000868152602001908152602001600020905060018160000160008282546105ce9190610cb6565b9250508190555060018160020160008282546105ea9190610cb6565b925050819055506106088160000154826001015483600201546108a4565b816003018190555083857fe8721ae5dce076eccbc3bb8c8f64afff10e31e17c18ecca56411846e79849aea83600001548460010154856002015486600301546040516106579493929190610a74565b60405180910390a3505b50505050565b7f000000000000000000000000000000000000000000000000000000000000000073ffffffffffffffffffffffffffffffffffffffff163373ffffffffffffffffffffffffffffffffffffffff16146106f5576040517f08c379a00000000000000000000000000000000000000000000000000000000081526004016106ec90610d36565b60405180910390fd5b600073ffffffffffffffffffffffffffffffffffffffff168173ffffffffffffffffffffffffffffffffffffffff1603610764576040517f08c379a000000000000000000000000000000000000000000000000000000000815260040161075b90610da2565b60405180910390fd5b600073ffffffffffffffffffffffffffffffffffffffff1660008054906101000a900473ffffffffffffffffffffffffffffffffffffffff1673ffffffffffffffffffffffffffffffffffffffff16146107f3576040517f08c379a00000000000000000000000000000000000000000000000000000000081526004016107ea90610e0e565b60405180910390fd5b806000806101000a81548173ffffffffffffffffffffffffffffffffffffffff021916908373ffffffffffffffffffffffffffffffffffffffff16021790555050565b6003602052816000526040600020602052806000526040600020600091509150505481565b600381565b60026020528060005260406000206000915054906101000a900460ff1681565b7f000000000000000000000000000000000000000000000000000000000000000081565b60008082036108b6576000905061095a565b6000826064866108c69190610e2e565b6108d09190610e9f565b90506000606484116108e257836108e5565b60645b90506000846064876108f79190610e2e565b6109019190610e9f565b9050600060646014846109149190610e2e565b6050866109219190610e2e565b61092b9190610cb6565b6109359190610e9f565b90508082101561095057818161094b9190610ed0565b610953565b60005b9450505050505b9392505050565b600080fd5b6000819050919050565b61097981610966565b811461098457600080fd5b50565b60008135905061099681610970565b92915050565b600080604083850312156109b3576109b2610961565b5b60006109c185828601610987565b92505060206109d285828601610987565b9150509250929050565b600073ffffffffffffffffffffffffffffffffffffffff82169050919050565b6000610a07826109dc565b9050919050565b610a17816109fc565b82525050565b6000602082019050610a326000830184610a0e565b92915050565b600060208284031215610a4e57610a4d610961565b5b6000610a5c84828501610987565b91505092915050565b610a6e81610966565b82525050565b6000608082019050610a896000830187610a65565b610a966020830186610a65565b610aa36040830185610a65565b610ab06060830184610a65565b95945050505050565b610ac2816109fc565b8114610acd57600080fd5b50565b600081359050610adf81610ab9565b92915050565b60008060008060808587031215610aff57610afe610961565b5b6000610b0d87828801610987565b9450506020610b1e87828801610987565b9350506040610b2f87828801610ad0565b9250506060610b4087828801610ad0565b91505092959194509250565b600060208284031215610b6257610b61610961565b5b6000610b7084828501610ad0565b91505092915050565b60008060408385031215610b9057610b8f610961565b5b6000610b9e85828601610987565b9250506020610baf85828601610ad0565b9150509250929050565b6000602082019050610bce6000830184610a65565b92915050565b60008115159050919050565b610be981610bd4565b82525050565b6000602082019050610c046000830184610be0565b92915050565b600082825260208201905092915050565b7f6f6e6c7920766572696669657200000000000000000000000000000000000000600082015250565b6000610c51600d83610c0a565b9150610c5c82610c1b565b602082019050919050565b60006020820190508181036000830152610c8081610c44565b9050919050565b7f4e487b7100000000000000000000000000000000000000000000000000000000600052601160045260246000fd5b6000610cc182610966565b9150610ccc83610966565b9250828201905080821115610ce457610ce3610c87565b5b92915050565b7f6f6e6c79206465706c6f79657200000000000000000000000000000000000000600082015250565b6000610d20600d83610c0a565b9150610d2b82610cea565b602082019050919050565b60006020820190508181036000830152610d4f81610d13565b9050919050565b7f7665726966696572207265717569726564000000000000000000000000000000600082015250565b6000610d8c601183610c0a565b9150610d9782610d56565b602082019050919050565b60006020820190508181036000830152610dbb81610d7f565b9050919050565b7f7665726966696572207365740000000000000000000000000000000000000000600082015250565b6000610df8600c83610c0a565b9150610e0382610dc2565b602082019050919050565b60006020820190508181036000830152610e2781610deb565b9050919050565b6000610e3982610966565b9150610e4483610966565b9250828202610e5281610966565b91508282048414831517610e6957610e68610c87565b5b5092915050565b7f4e487b7100000000000000000000000000000000000000000000000000000000600052601260045260246000fd5b6000610eaa82610966565b9150610eb583610966565b925082610ec557610ec4610e70565b5b828204905092915050565b6000610edb82610966565b9150610ee683610966565b9250828203905081811115610efe57610efd610c87565b5b9291505056fea264697066735822122027341711c58409f68b282306908e0bbaebc9969fc15480f1af63aebe0e55519d64736f6c63430008180033",
  "linkReferences": {},
  "deployedLinkReferences": {}
}