{
  "_format": "hh-sol-artifact-1",
  "contractName": "ProofVerifier",
  "sourceName": "contracts/ProofVerifier.sol",
  "abi": [
    {
      "inputs": [
        {
          "internalType": "address",
          "name": "jobManager_",
          "type": "address"
        },
        {
          "internalType": "address",
          "name": "atlasScore_",
          "type": "address"
        },
        {
          "internalType": "address",
          "name": "agentRegistry_",
          "type": "address"
        }
      ],
      "stateMutability": "nonpayable",
      "type": "constructor"
    },
    {
      "anonymous": false,
      "inputs": [
        {
          "indexed": true,
          "internalType": "uint256",
          "name": "jobId",
          "type": "uint256"
        },
        {
          "indexed": true,
          "internalType": "uint256",
          "name": "agentId",
          "type": "uint256"
        },
        {
          "indexed": false,
          "internalType": "bytes32",
          "name": "reasonHash",
          "type": "bytes32"
        }
      ],
      "name": "ProofFailed",
      "type": "event"
    },
    {
      "anonymous": false,
      "inputs": [
        {
          "indexed": true,
          "internalType": "uint256",
          "name": "jobId",
          "type": "uint256"
        },
        {
          "indexed": true,
          "internalType": "uint256",
          "name": "agentId",
          "type": "uint256"
        },
        {
          "indexed": false,
          "internalType": "bytes32",
          "name": "resultHash",
          "type": "bytes32"
        }
      ],
      "name": "ProofSubmitted",
      "type": "event"
    },
    {
      "anonymous": false,
      "inputs": [
        {
          "indexed": true,
          "internalType": "uint256",
          "name": "jobId",
          "type": "uint256"
        },
        {
          "indexed": true,
          "internalType": "uint256",
          "name": "agentId",
          "type": "uint256"
        },
        {
          "indexed": false,
          "internalType": "bytes32",
          "name": "resultHash",
          "type": "bytes32"
        }
      ],
      "name": "ProofVerified",
      "type": "event"
    },
    {
      "inputs": [
        {
          "internalType": "uint256",
          "name": "jobId",
          "type": "uint256"
        },
        {
          "internalType": "uint256",
          "name": "agentId",
          "type": "uint256"
        }
      ],
      "name": "acceptProof",
      "outputs": [],
      "stateMutability": "nonpayable",
      "type": "function"
    },
    {
      "inputs": [],
      "name": "agentRegistry",
      "outputs": [
        {
          "internalType": "contract IAgentRegistryForProofs",
          "name": "",
          "type": "address"
        }
      ],
      "stateMutability": "view",
      "type": "function"
    },
    {
      "inputs": [],
      "name": "atlasScore",
      "outputs": [
        {
          "internalType": "contract IAtlasScore",
          "name": "",
          "type": "address"
        }
      ],
      "stateMutability": "view",
      "type": "function"
    },
    {
      "inputs": [
        {
          "internalType": "uint256",
          "name": "",
          "type": "uint256"
        }
      ],
      "name": "failedJobs",
      "outputs": [
        {
          "internalType": "bool",
          "name": "",
          "type": "bool"
        }
      ],
      "stateMutability": "view",
      "type": "function"
    },
    {
      "inputs": [],
      "name": "jobManager",
      "outputs": [
        {
          "internalType": "contract IJobManager",
          "name": "",
          "type": "address"
        }
      ],
      "stateMutability": "view",
      "type": "function"
    },
    {
      "inputs": [
        {
          "internalType": "uint256",
          "name": "jobId",
          "type": "uint256"
        },
        {
          "internalType": "uint256",
          "name": "agentId",
          "type": "uint256"
        },
        {
          "internalType": "bytes32",
          "name": "reasonHash",
          "type": "bytes32"
        }
      ],
      "name": "markJobFailed",
      "outputs": [],
      "stateMutability": "nonpayable",
      "type": "function"
    },
    {
      "inputs": [
        {
          "internalType": "uint256",
          "name": "",
          "type": "uint256"
        }
      ],
      "name": "proofs",
      "outputs": [
        {
          "internalType": "uint256",
          "name": "jobId",
          "type": "uint256"
        },
        {
          "internalType": "uint256",
          "name": "agentId",
          "type": "uint256"
        },
        {
          "internalType": "bytes32",
          "name": "resultHash",
          "type": "bytes32"
        },
        {
          "internalType": "bool",
          "name": "verified",
          "type": "bool"
        },
        {
          "internalType": "bool",
          "name": "submitted",
          "type": "bool"
        },
        {
          "internalType": "uint256",
          "name": "verifiedAt",
          "type": "uint256"
        }
      ],
      "stateMutability": "view",
      "type": "function"
    },
    {
      "inputs": [
        {
          "internalType": "uint256",
          "name": "jobId",
          "type": "uint256"
        },
        {
          "internalType": "uint256",
          "name": "agentId",
          "type": "uint256"
        },
        {
          "internalType": "bytes32",
          "name": "resultHash",
          "type": "bytes32"
        }
      ],
      "name": "submitProof",
      "outputs": [],
      "stateMutability": "nonpayable",
      "type": "function"
    },
    {
      "inputs": [
        {
          "internalType": "uint256",
          "name": "",
          "type": "uint256"
        }
      ],
      "name": "verifiedJobs",
      "outputs": [
        {
          "internalType": "bool",
          "name": "",
          "type": "bool"
        }
      ],
      "stateMutability": "view",
      "type": "function"
    }
  ],
  "bytecode": "0x60806040523480156200001157600080fd5b5060405162001d9738038062001d9783398181016040528101906200003791906200016c565b826000806101000a81548173ffffffffffffffffffffffffffffffffffffffff021916908373ffffffffffffffffffffffffffffffffffffffff16021790555081600160006101000a81548173ffffffffffffffffffffffffffffffffffffffff021916908373ffffffffffffffffffffffffffffffffffffffff16021790555080600260006101000a81548173ffffffffffffffffffffffffffffffffffffffff021916908373ffffffffffffffffffffffffffffffffffffffff160217905550505050620001c8565b600080fd5b600073ffffffffffffffffffffffffffffffffffffffff82169050919050565b6000620001348262000107565b9050919050565b620001468162000127565b81146200015257600080fd5b50565b60008151905062000166816200013b565b92915050565b60008060006060848603121562000188576200018762000102565b5b6000620001988682870162000155565b9350506020620001ab8682870162000155565b9250506040620001be8682870162000155565b9150509250925092565b611bbf80620001d86000396000f3fe608060405234801561001057600080fd5b50600436106100935760003560e01c80636bece037116100665780636bece0371461010c5780638598be6a1461013c5780638d64ca82146101585780639ddaf5aa14610176578063d04feac0146101ab57610093565b80630d1cfcae1461009857806323a9504e146100b65780633df395a3146100d2578063603ed7bd146100f0575b600080fd5b6100a06101db565b6040516100ad91906112e5565b60405180910390f35b6100d060048036038101906100cb919061133b565b610201565b005b6100da6106c3565b6040516100e7919061139c565b60405180910390f35b61010a600480360381019061010591906113ed565b6106e7565b005b61012660048036038101906101219190611440565b610c92565b6040516101339190611488565b60405180910390f35b610156600480360381019061015191906113ed565b610cb2565b005b6101606111ca565b60405161016d91906114c4565b60405180910390f35b610190600480360381019061018b9190611440565b6111f0565b6040516101a2969594939291906114fd565b60405180910390f35b6101c560048036038101906101c09190611440565b611246565b6040516101d29190611488565b60405180910390f35b600260009054906101000a900473ffffffffffffffffffffffffffffffffffffffff1681565b60006003600084815260200190815260200160002090508060030160019054906101000a900460ff16610269576040517f08c379a0000000000000000000000000000000000000000000000000000000008152600401610260906115bb565b60405180910390fd5b818160010154146102af576040517f08c379a00000000000000000000000000000000000000000000000000000000081526004016102a690611627565b60405180910390fd5b3373ffffffffffffffffffffffffffffffffffffffff1660008054906101000a900473ffffffffffffffffffffffffffffffffffffffff1673ffffffffffffffffffffffffffffffffffffffff1663589a1743856040518263ffffffff1660e01b815260040161031f9190611647565b602060405180830381865afa15801561033c573d6000803e3d6000fd5b505050506040513d601f19601f8201168201806040525081019061036091906116a0565b73ffffffffffffffffffffffffffffffffffffffff16146103b6576040517f08c379a00000000000000000000000000000000000000000000000000000000081526004016103ad90611719565b60405180910390fd5b6004600084815260200190815260200160002060009054906101000a900460ff1615610417576040517f08c379a000000000000000000000000000000000000000000000000000000000815260040161040e90611785565b60405180910390fd5b6005600084815260200190815260200160002060009054906101000a900460ff1615610478576040517f08c379a000000000000000000000000000000000000000000000000000000000815260040161046f906117f1565b60405180910390fd5b60018160030160006101000a81548160ff02191690831515021790555042816004018190555060008054906101000a900473ffffffffffffffffffffffffffffffffffffffff1673ffffffffffffffffffffffffffffffffffffffff1663cac5c512846040518263ffffffff1660e01b81526004016104f79190611647565b600060405180830381600087803b15801561051157600080fd5b505af1158015610525573d6000803e3d6000fd5b5050505060016004600085815260200190815260200160002060006101000a81548160ff02191690831515021790555081837fbec4190ac7352a17348b6f148683633904f845eec9b142dcdc00cbe3aec7bcc6836002015460405161058a9190611811565b60405180910390a3600160009054906101000a900473ffffffffffffffffffffffffffffffffffffffff1673ffffffffffffffffffffffffffffffffffffffff16634e85684c83853360008054906101000a900473ffffffffffffffffffffffffffffffffffffffff1673ffffffffffffffffffffffffffffffffffffffff1663aa7686fb886040518263ffffffff1660e01b815260040161062c9190611647565b602060405180830381865afa158015610649573d6000803e3d6000fd5b505050506040513d601f19601f8201168201806040525081019061066d91906116a0565b6040518563ffffffff1660e01b815260040161068c949392919061183b565b600060405180830381600087803b1580156106a657600080fd5b505af11580156106ba573d6000803e3d6000fd5b50505050505050565b60008054906101000a900473ffffffffffffffffffffffffffffffffffffffff1681565b60008054906101000a900473ffffffffffffffffffffffffffffffffffffffff1673ffffffffffffffffffffffffffffffffffffffff166311461014846040518263ffffffff1660e01b81526004016107409190611647565b602060405180830381865afa15801561075d573d6000803e3d6000fd5b505050506040513d601f19601f8201168201806040525081019061078191906118ac565b6107c0576040517f08c379a00000000000000000000000000000000000000000000000000000000081526004016107b790611925565b60405180910390fd5b8160008054906101000a900473ffffffffffffffffffffffffffffffffffffffff1673ffffffffffffffffffffffffffffffffffffffff1663ba906fbb856040518263ffffffff1660e01b815260040161081a9190611647565b602060405180830381865afa158015610837573d6000803e3d6000fd5b505050506040513d601f19601f8201168201806040525081019061085b919061195a565b1461089b576040517f08c379a000000000000000000000000000000000000000000000000000000000815260040161089290611627565b60405180910390fd5b3373ffffffffffffffffffffffffffffffffffffffff1660008054906101000a900473ffffffffffffffffffffffffffffffffffffffff1673ffffffffffffffffffffffffffffffffffffffff1663589a1743856040518263ffffffff1660e01b815260040161090b9190611647565b602060405180830381865afa158015610928573d6000803e3d6000fd5b505050506040513d601f19601f8201168201806040525081019061094c91906116a0565b73ffffffffffffffffffffffffffffffffffffffff16146109a2576040517f08c379a000000000000000000000000000000000000000000000000000000000815260040161099990611719565b60405180910390fd5b6000801b81036109e7576040517f08c379a00000000000000000000000000000000000000000000000000000000081526004016109de906119d3565b60405180910390fd5b6003600084815260200190815260200160002060030160019054906101000a900460ff16610a4a576040517f08c379a0000000000000000000000000000000000000000000000000000000008152600401610a41906115bb565b60405180910390fd5b6004600084815260200190815260200160002060009054906101000a900460ff1615610aab576040517f08c379a0000000000000000000000000000000000000000000000000000000008152600401610aa290611785565b60405180910390fd5b6005600084815260200190815260200160002060009054906101000a900460ff1615610b0c576040517f08c379a0000000000000000000000000000000000000000000000000000000008152600401610b03906117f1565b60405180910390fd5b60016005600085815260200190815260200160002060006101000a81548160ff02191690831515021790555060008054906101000a900473ffffffffffffffffffffffffffffffffffffffff1673ffffffffffffffffffffffffffffffffffffffff16639f74457884836040518363ffffffff1660e01b8152600401610b939291906119f3565b600060405180830381600087803b158015610bad57600080fd5b505af1158015610bc1573d6000803e3d6000fd5b5050505081837f68c5dd21c8e38d92f9c1df1e794bd0747b667ce30a1411d0f92395ec4d9f2aa983604051610bf69190611811565b60405180910390a3600160009054906101000a900473ffffffffffffffffffffffffffffffffffffffff1673ffffffffffffffffffffffffffffffffffffffff166327a7d63e83856040518363ffffffff1660e01b8152600401610c5b929190611a1c565b600060405180830381600087803b158015610c7557600080fd5b505af1158015610c89573d6000803e3d6000fd5b50505050505050565b60056020528060005260406000206000915054906101000a900460ff1681565b60008054906101000a900473ffffffffffffffffffffffffffffffffffffffff1673ffffffffffffffffffffffffffffffffffffffff166311461014846040518263ffffffff1660e01b8152600401610d0b9190611647565b602060405180830381865afa158015610d28573d6000803e3d6000fd5b505050506040513d601f19601f82011682018060405250810190610d4c91906118ac565b610d8b576040517f08c379a0000000000000000000000000000000000000000000000000000000008152600401610d8290611925565b60405180910390fd5b8160008054906101000a900473ffffffffffffffffffffffffffffffffffffffff1673ffffffffffffffffffffffffffffffffffffffff1663ba906fbb856040518263ffffffff1660e01b8152600401610de59190611647565b602060405180830381865afa158015610e02573d6000803e3d6000fd5b505050506040513d601f19601f82011682018060405250810190610e26919061195a565b14610e66576040517f08c379a0000000000000000000000000000000000000000000000000000000008152600401610e5d90611627565b60405180910390fd5b3373ffffffffffffffffffffffffffffffffffffffff16600260009054906101000a900473ffffffffffffffffffffffffffffffffffffffff1673ffffffffffffffffffffffffffffffffffffffff16636352211e846040518263ffffffff1660e01b8152600401610ed89190611647565b602060405180830381865afa158015610ef5573d6000803e3d6000fd5b505050506040513d601f19601f82011682018060405250810190610f1991906116a0565b73ffffffffffffffffffffffffffffffffffffffff1614610f6f576040517f08c379a0000000000000000000000000000000000000000000000000000000008152600401610f6690611a91565b60405180910390fd5b6000801b8103610fb4576040517f08c379a0000000000000000000000000000000000000000000000000000000008152600401610fab90611afd565b60405180910390fd5b6003600084815260200190815260200160002060030160019054906101000a900460ff1615611018576040517f08c379a000000000000000000000000000000000000000000000000000000000815260040161100f90611b69565b60405180910390fd5b6004600084815260200190815260200160002060009054906101000a900460ff1615611079576040517f08c379a000000000000000000000000000000000000000000000000000000000815260040161107090611785565b60405180910390fd5b6005600084815260200190815260200160002060009054906101000a900460ff16156110da576040517f08c379a00000000000000000000000000000000000000000000000000000000081526004016110d1906117f1565b60405180910390fd5b6040518060c0016040528084815260200183815260200182815260200160001515815260200160011515815260200160008152506003600085815260200190815260200160002060008201518160000155602082015181600101556040820151816002015560608201518160030160006101000a81548160ff02191690831515021790555060808201518160030160016101000a81548160ff02191690831515021790555060a0820151816004015590505081837f9b5cdf2a1d86062250bc359360ca976cc957376d56fd42bbea88d776805c9a51836040516111bd9190611811565b60405180910390a3505050565b600160009054906101000a900473ffffffffffffffffffffffffffffffffffffffff1681565b60036020528060005260406000206000915090508060000154908060010154908060020154908060030160009054906101000a900460ff16908060030160019054906101000a900460ff16908060040154905086565b60046020528060005260406000206000915054906101000a900460ff1681565b600073ffffffffffffffffffffffffffffffffffffffff82169050919050565b6000819050919050565b60006112ab6112a66112a184611266565b611286565b611266565b9050919050565b60006112bd82611290565b9050919050565b60006112cf826112b2565b9050919050565b6112df816112c4565b82525050565b60006020820190506112fa60008301846112d6565b92915050565b600080fd5b6000819050919050565b61131881611305565b811461132357600080fd5b50565b6000813590506113358161130f565b92915050565b6000806040838503121561135257611351611300565b5b600061136085828601611326565b925050602061137185828601611326565b9150509250929050565b6000611386826112b2565b9050919050565b6113968161137b565b82525050565b60006020820190506113b1600083018461138d565b92915050565b6000819050919050565b6113ca816113b7565b81146113d557600080fd5b50565b6000813590506113e7816113c1565b92915050565b60008060006060848603121561140657611405611300565b5b600061141486828701611326565b935050602061142586828701611326565b9250506040611436868287016113d8565b9150509250925092565b60006020828403121561145657611455611300565b5b600061146484828501611326565b91505092915050565b60008115159050919050565b6114828161146d565b82525050565b600060208201905061149d6000830184611479565b92915050565b60006114ae826112b2565b9050919050565b6114be816114a3565b82525050565b60006020820190506114d960008301846114b5565b92915050565b6114e881611305565b82525050565b6114f7816113b7565b82525050565b600060c08201905061151260008301896114df565b61151f60208301886114df565b61152c60408301876114ee565b6115396060830186611479565b6115466080830185611479565b61155360a08301846114df565b979650505050505050565b600082825260208201905092915050565b7f70726f6f66206d697373696e6700000000000000000000000000000000000000600082015250565b60006115a5600d8361155e565b91506115b08261156f565b602082019050919050565b600060208201905081810360008301526115d481611598565b9050919050565b7f77726f6e67206167656e74000000000000000000000000000000000000000000600082015250565b6000611611600b8361155e565b915061161c826115db565b602082019050919050565b6000602082019050818103600083015261164081611604565b9050919050565b600060208201905061165c60008301846114df565b92915050565b600061166d82611266565b9050919050565b61167d81611662565b811461168857600080fd5b50565b60008151905061169a81611674565b92915050565b6000602082840312156116b6576116b5611300565b5b60006116c48482850161168b565b91505092915050565b7f6f6e6c79206a6f622063726561746f7200000000000000000000000000000000600082015250565b600061170360108361155e565b915061170e826116cd565b602082019050919050565b60006020820190508181036000830152611732816116f6565b9050919050565b7f616c726561647920766572696669656400000000000000000000000000000000600082015250565b600061176f60108361155e565b915061177a82611739565b602082019050919050565b6000602082019050818103600083015261179e81611762565b9050919050565b7f616c7265616479206661696c6564000000000000000000000000000000000000600082015250565b60006117db600e8361155e565b91506117e6826117a5565b602082019050919050565b6000602082019050818103600083015261180a816117ce565b9050919050565b600060208201905061182660008301846114ee565b92915050565b61183581611662565b82525050565b600060808201905061185060008301876114df565b61185d60208301866114df565b61186a604083018561182c565b611877606083018461182c565b95945050505050565b6118898161146d565b811461189457600080fd5b50565b6000815190506118a681611880565b92915050565b6000602082840312156118c2576118c1611300565b5b60006118d084828501611897565b91505092915050565b7f6a6f62206d697373696e67000000000000000000000000000000000000000000600082015250565b600061190f600b8361155e565b915061191a826118d9565b602082019050919050565b6000602082019050818103600083015261193e81611902565b9050919050565b6000815190506119548161130f565b92915050565b6000602082840312156119705761196f611300565b5b600061197e84828501611945565b91505092915050565b7f726561736f6e2072657175697265640000000000000000000000000000000000600082015250565b60006119bd600f8361155e565b91506119c882611987565b602082019050919050565b600060208201905081810360008301526119ec816119b0565b9050919050565b6000604082019050611a0860008301856114df565b611a1560208301846114ee565b9392505050565b6000604082019050611a3160008301856114df565b611a3e60208301846114df565b9392505050565b7f6f6e6c79206167656e74206f776e657200000000000000000000000000000000600082015250565b6000611a7b60108361155e565b9150611a8682611a45565b602082019050919050565b60006020820190508181036000830152611aaa81611a6e565b9050919050565b7f6861736820726571756972656400000000000000000000000000000000000000600082015250565b6000611ae7600d8361155e565b9150611af282611ab1565b602082019050919050565b60006020820190508181036000830152611b1681611ada565b9050919050565b7f616c7265616479207375626d6974746564000000000000000000000000000000600082015250565b6000611b5360118361155e565b9150611b5e82611b1d565b602082019050919050565b60006020820190508181036000830152611b8281611b46565b905091905056fea264697066735822122015a598b6580404e1f23baecdfa5bde93ac76c972fe87ea5d4b2374cafe0fbc6864736f6c63430008180033",
  "linkReferences": {},
  "deployedLinkReferences": {}
}