{
  "_format": "hh-sol-artifact-1",
  "contractName": "JobManager",
  "sourceName": "contracts/JobManager.sol",
  "abi": [
    {
      "inputs": [
        {
          "internalType": "address",
          "name": "agentRegistry_",
          "type": "address"
        }
      ],
      "stateMutability": "nonpayable",
      "type": "constructor"
    },
    {
      "anonymous": false,
      "inputs": [
        {
          "indexed": true,
          "internalType": "uint256",
          "name": "jobId",
          "type": "uint256"
        },
        {
          "indexed": true,
          "internalType": "uint256",
          "name": "agentId",
          "type": "uint256"
        },
        {
          "indexed": true,
          "internalType": "address",
          "name": "agentOwner",
          "type": "address"
        }
      ],
      "name": "JobAccepted",
      "type": "event"
    },
    {
      "anonymous": false,
      "inputs": [
        {
          "indexed": true,
          "internalType": "uint256",
          "name": "jobId",
          "type": "uint256"
        },
        {
          "indexed": true,
          "internalType": "uint256",
          "name": "agentId",
          "type": "uint256"
        }
      ],
      "name": "JobCompleted",
      "type": "event"
    },
    {
      "anonymous": false,
      "inputs": [
        {
          "indexed": true,
          "internalType": "uint256",
          "name": "jobId",
          "type": "uint256"
        },
        {
          "indexed": false,
          "internalType": "string",
          "name": "description",
          "type": "string"
        },
        {
          "indexed": false,
          "internalType": "uint256",
          "name": "reward",
          "type": "uint256"
        },
        {
          "indexed": true,
          "internalType": "address",
          "name": "creator",
          "type": "address"
        }
      ],
      "name": "JobCreated",
      "type": "event"
    },
    {
      "anonymous": false,
      "inputs": [
        {
          "indexed": true,
          "internalType": "uint256",
          "name": "jobId",
          "type": "uint256"
        },
        {
          "indexed": true,
          "internalType": "uint256",
          "name": "agentId",
          "type": "uint256"
        },
        {
          "indexed": false,
          "internalType": "bytes32",
          "name": "reasonHash",
          "type": "bytes32"
        }
      ],
      "name": "JobFailed",
      "type": "event"
    },
    {
      "inputs": [],
      "name": "JOB_BOND",
      "outputs": [
        {
          "internalType": "uint256",
          "name": "",
          "type": "uint256"
        }
      ],
      "stateMutability": "view",
      "type": "function"
    },
    {
      "inputs": [
        {
          "internalType": "uint256",
          "name": "jobId",
          "type": "uint256"
        },
        {
          "internalType": "uint256",
          "name": "agentId",
          "type": "uint256"
        }
      ],
      "name": "acceptJob",
      "outputs": [],
      "stateMutability": "nonpayable",
      "type": "function"
    },
    {
      "inputs": [
        {
          "internalType": "uint256",
          "name": "agentId",
          "type": "uint256"
        }
      ],
      "name": "agentOwnerOf",
      "outputs": [
        {
          "internalType": "address",
          "name": "",
          "type": "address"
        }
      ],
      "stateMutability": "view",
      "type": "function"
    },
    {
      "inputs": [],
      "name": "agentRegistry",
      "outputs": [
        {
          "internalType": "contract IAgentRegistry",
          "name": "",
          "type": "address"
        }
      ],
      "stateMutability": "view",
      "type": "function"
    },
    {
      "inputs": [
        {
          "internalType": "uint256",
          "name": "jobId",
          "type": "uint256"
        }
      ],
      "name": "assignedAgent",
      "outputs": [
        {
          "internalType": "uint256",
          "name": "",
          "type": "uint256"
        }
      ],
      "stateMutability": "view",
      "type": "function"
    },
    {
      "inputs": [
        {
          "internalType": "string",
          "name": "description",
          "type": "string"
        },
        {
          "internalType": "uint256",
          "name": "reward",
          "type": "uint256"
        }
      ],
      "name": "createJob",
      "outputs": [
        {
          "internalType": "uint256",
          "name": "jobId",
          "type": "uint256"
        }
      ],
      "stateMutability": "payable",
      "type": "function"
    },
    {
      "inputs": [
        {
          "internalType": "uint256",
          "name": "jobId",
          "type": "uint256"
        }
      ],
      "name": "creatorOf",
      "outputs": [
        {
          "internalType": "address",
          "name": "",
          "type": "address"
        }
      ],
      "stateMutability": "view",
      "type": "function"
    },
    {
      "inputs": [],
      "name": "deployer",
      "outputs": [
        {
          "internalType": "address",
          "name": "",
          "type": "address"
        }
      ],
      "stateMutability": "view",
      "type": "function"
    },
    {
      "inputs": [
        {
          "internalType": "uint256",
          "name": "jobId",
          "type": "uint256"
        }
      ],
      "name": "getJob",
      "outputs": [
        {
          "components": [
            {
              "internalType": "uint256",
              "name": "jobId",
              "type": "uint256"
            },
            {
              "internalType": "string",
              "name": "description",
              "type": "string"
            },
            {
              "internalType": "uint256",
              "name": "reward",
              "type": "uint256"
            },
            {
              "internalType": "enum JobManager.Status",
              "name": "status",
              "type": "uint8"
            },
            {
              "internalType": "uint256",
              "name": "assignedAgentId",
              "type": "uint256"
            },
            {
              "internalType": "address",
              "name": "creator",
              "type": "address"
            },
            {
              "internalType": "uint256",
              "name": "createdAt",
              "type": "uint256"
            }
          ],
          "internalType": "struct JobManager.Job",
          "name": "",
          "type": "tuple"
        }
      ],
      "stateMutability": "view",
      "type": "function"
    },
    {
      "inputs": [
        {
          "internalType": "uint256",
          "name": "jobId",
          "type": "uint256"
        }
      ],
      "name": "jobExists",
      "outputs": [
        {
          "internalType": "bool",
          "name": "",
          "type": "bool"
        }
      ],
      "stateMutability": "view",
      "type": "function"
    },
    {
      "inputs": [
        {
          "internalType": "uint256",
          "name": "jobId",
          "type": "uint256"
        }
      ],
      "name": "markCompleted",
      "outputs": [],
      "stateMutability": "nonpayable",
      "type": "function"
    },
    {
      "inputs": [
        {
          "internalType": "uint256",
          "name": "jobId",
          "type": "uint256"
        },
        {
          "internalType": "bytes32",
          "name": "reasonHash",
          "type": "bytes32"
        }
      ],
      "name": "markFailed",
      "outputs": [],
      "stateMutability": "nonpayable",
      "type": "function"
    },
    {
      "inputs": [],
      "name": "nextJobId",
      "outputs": [
        {
          "internalType": "uint256",
          "name": "",
          "type": "uint256"
        }
      ],
      "stateMutability": "view",
      "type": "function"
    },
    {
      "inputs": [
        {
          "internalType": "address",
          "name": "verifier_",
          "type": "address"
        }
      ],
      "name": "setVerifier",
      "outputs": [],
      "stateMutability": "nonpayable",
      "type": "function"
    },
    {
      "inputs": [],
      "name": "verifier",
      "outputs": [
        {
          "internalType": "address",
          "name": "",
          "type": "address"
        }
      ],
      "stateMutability": "view",
      "type": "function"
    }
  ],
  "bytecode": "0x60a060405260016002553480156200001657600080fd5b50604051620024803803806200248083398181016040528101906200003c919062000121565b806000806101000a81548173ffffffffffffffffffffffffffffffffffffffff021916908373ffffffffffffffffffffffffffffffffffffffff1602179055503373ffffffffffffffffffffffffffffffffffffffff1660808173ffffffffffffffffffffffffffffffffffffffff16815250505062000153565b600080fd5b600073ffffffffffffffffffffffffffffffffffffffff82169050919050565b6000620000e982620000bc565b9050919050565b620000fb81620000dc565b81146200010757600080fd5b50565b6000815190506200011b81620000f0565b92915050565b6000602082840312156200013a5762000139620000b7565b5b60006200014a848285016200010a565b91505092915050565b60805161230a62000176600039600081816108120152611325015261230a6000f3fe6080604052600436106100e85760003560e01c8063589a17431161008a578063ba906fbb11610059578063ba906fbb146102fb578063bf22c45714610338578063cac5c51214610375578063d5f394881461039e576100e8565b8063589a17431461022d5780639f7445781461026a578063aa7686fb14610293578063b0c2aa5e146102d0576100e8565b80632b7ac3f3116100c65780632b7ac3f31461017e5780632faf9da4146101a95780635437988d146101d45780635713b2b6146101fd576100e8565b80630a3ff40d146100ed5780630d1cfcae146101165780631146101414610141575b600080fd5b3480156100f957600080fd5b50610114600480360381019061010f91906113ec565b6103c9565b005b34801561012257600080fd5b5061012b610798565b60405161013891906114ab565b60405180910390f35b34801561014d57600080fd5b50610168600480360381019061016391906114c6565b6107bc565b604051610175919061150e565b60405180910390f35b34801561018a57600080fd5b506101936107df565b6040516101a0919061154a565b60405180910390f35b3480156101b557600080fd5b506101be610805565b6040516101cb9190611574565b60405180910390f35b3480156101e057600080fd5b506101fb60048036038101906101f691906115bb565b610810565b005b6102176004803603810190610212919061164d565b6109e2565b6040516102249190611574565b60405180910390f35b34801561023957600080fd5b50610254600480360381019061024f91906114c6565b610c52565b604051610261919061154a565b60405180910390f35b34801561027657600080fd5b50610291600480360381019061028c91906116e3565b610cea565b005b34801561029f57600080fd5b506102ba60048036038101906102b591906114c6565b610ebf565b6040516102c7919061154a565b60405180910390f35b3480156102dc57600080fd5b506102e5610f63565b6040516102f29190611574565b60405180910390f35b34801561030757600080fd5b50610322600480360381019061031d91906114c6565b610f69565b60405161032f9190611574565b60405180910390f35b34801561034457600080fd5b5061035f600480360381019061035a91906114c6565b610f89565b60405161036c91906118e4565b60405180910390f35b34801561038157600080fd5b5061039c600480360381019061039791906114c6565b61115a565b005b3480156103aa57600080fd5b506103b3611323565b6040516103c0919061154a565b60405180910390f35b60006003600084815260200190815260200160002090506000816000015403610427576040517f08c379a000000000000000000000000000000000000000000000000000000000815260040161041e90611963565b60405180910390fd5b6000600381111561043b5761043a6117c2565b5b8160030160009054906101000a900460ff16600381111561045f5761045e6117c2565b5b1461049f576040517f08c379a0000000000000000000000000000000000000000000000000000000008152600401610496906119cf565b60405180910390fd5b60008054906101000a900473ffffffffffffffffffffffffffffffffffffffff1673ffffffffffffffffffffffffffffffffffffffff1663de99f157836040518263ffffffff1660e01b81526004016104f89190611574565b602060405180830381865afa158015610515573d6000803e3d6000fd5b505050506040513d601f19601f820116820180604052508101906105399190611a1b565b610578576040517f08c379a000000000000000000000000000000000000000000000000000000000815260040161056f90611a94565b60405180910390fd5b60008060009054906101000a900473ffffffffffffffffffffffffffffffffffffffff1673ffffffffffffffffffffffffffffffffffffffff16636352211e846040518263ffffffff1660e01b81526004016105d49190611574565b602060405180830381865afa1580156105f1573d6000803e3d6000fd5b505050506040513d601f19601f820116820180604052508101906106159190611ac9565b90508073ffffffffffffffffffffffffffffffffffffffff163373ffffffffffffffffffffffffffffffffffffffff1614610685576040517f08c379a000000000000000000000000000000000000000000000000000000000815260040161067c90611b42565b60405180910390fd5b8073ffffffffffffffffffffffffffffffffffffffff168260050160009054906101000a900473ffffffffffffffffffffffffffffffffffffffff1673ffffffffffffffffffffffffffffffffffffffff1603610717576040517f08c379a000000000000000000000000000000000000000000000000000000000815260040161070e90611bae565b60405180910390fd5b60018260030160006101000a81548160ff0219169083600381111561073f5761073e6117c2565b5b02179055508282600401819055508073ffffffffffffffffffffffffffffffffffffffff1683857fcf4607485331a311c59a94d883d154ee59295ac125eca182f611f30fe47a153260405160405180910390a450505050565b60008054906101000a900473ffffffffffffffffffffffffffffffffffffffff1681565b600080600360008481526020019081526020016000206000015414159050919050565b600160009054906101000a900473ffffffffffffffffffffffffffffffffffffffff1681565b6611c37937e0800081565b7f000000000000000000000000000000000000000000000000000000000000000073ffffffffffffffffffffffffffffffffffffffff163373ffffffffffffffffffffffffffffffffffffffff161461089e576040517f08c379a000000000000000000000000000000000000000000000000000000000815260040161089590611c1a565b60405180910390fd5b600073ffffffffffffffffffffffffffffffffffffffff168173ffffffffffffffffffffffffffffffffffffffff160361090d576040517f08c379a000000000000000000000000000000000000000000000000000000000815260040161090490611c86565b60405180910390fd5b600073ffffffffffffffffffffffffffffffffffffffff16600160009054906101000a900473ffffffffffffffffffffffffffffffffffffffff1673ffffffffffffffffffffffffffffffffffffffff161461099e576040517f08c379a000000000000000000000000000000000000000000000000000000000815260040161099590611cf2565b60405180910390fd5b80600160006101000a81548173ffffffffffffffffffffffffffffffffffffffff021916908373ffffffffffffffffffffffffffffffffffffffff16021790555050565b6000808484905011610a29576040517f08c379a0000000000000000000000000000000000000000000000000000000008152600401610a2090611d5e565b60405180910390fd5b6611c37937e08000341015610a73576040517f08c379a0000000000000000000000000000000000000000000000000000000008152600401610a6a90611dca565b60405180910390fd5b60026000815480929190610a8690611e19565b9190505590506040518060e0016040528082815260200185858080601f016020809104026020016040519081016040528093929190818152602001838380828437600081840152601f19601f82011690508083019250505050505050815260200183815260200160006003811115610b0157610b006117c2565b5b8152602001600081526020013373ffffffffffffffffffffffffffffffffffffffff1681526020014281525060036000838152602001908152602001600020600082015181600001556020820151816001019081610b5f9190612092565b506040820151816002015560608201518160030160006101000a81548160ff02191690836003811115610b9557610b946117c2565b5b02179055506080820151816004015560a08201518160050160006101000a81548173ffffffffffffffffffffffffffffffffffffffff021916908373ffffffffffffffffffffffffffffffffffffffff16021790555060c082015181600601559050503373ffffffffffffffffffffffffffffffffffffffff16817fc5216daa12e6ac2fd90bb3cac0a45cf705bd6114d0ad74be0d311e0f8e31a63e868686604051610c43939291906121a0565b60405180910390a39392505050565b600080600360008481526020019081526020016000206000015403610cac576040517f08c379a0000000000000000000000000000000000000000000000000000000008152600401610ca390611963565b60405180910390fd5b6003600083815260200190815260200160002060050160009054906101000a900473ffffffffffffffffffffffffffffffffffffffff169050919050565b600160009054906101000a900473ffffffffffffffffffffffffffffffffffffffff1673ffffffffffffffffffffffffffffffffffffffff163373ffffffffffffffffffffffffffffffffffffffff1614610d7a576040517f08c379a0000000000000000000000000000000000000000000000000000000008152600401610d719061221e565b60405180910390fd5b60006003600084815260200190815260200160002090506000816000015403610dd8576040517f08c379a0000000000000000000000000000000000000000000000000000000008152600401610dcf90611963565b60405180910390fd5b60016003811115610dec57610deb6117c2565b5b8160030160009054906101000a900460ff166003811115610e1057610e0f6117c2565b5b14610e50576040517f08c379a0000000000000000000000000000000000000000000000000000000008152600401610e479061228a565b60405180910390fd5b60038160030160006101000a81548160ff02191690836003811115610e7857610e776117c2565b5b02179055508060040154837f994ffd50c6eb5f0976934570dce194da6f0de4fc82552a6a0bc6843e5e0f90b584604051610eb291906122b9565b60405180910390a3505050565b60008060009054906101000a900473ffffffffffffffffffffffffffffffffffffffff1673ffffffffffffffffffffffffffffffffffffffff16636352211e836040518263ffffffff1660e01b8152600401610f1b9190611574565b602060405180830381865afa158015610f38573d6000803e3d6000fd5b505050506040513d601f19601f82011682018060405250810190610f5c9190611ac9565b9050919050565b60025481565b600060036000838152602001908152602001600020600401549050919050565b610f91611347565b6000600360008481526020019081526020016000206000015403610fea576040517f08c379a0000000000000000000000000000000000000000000000000000000008152600401610fe190611963565b60405180910390fd5b600360008381526020019081526020016000206040518060e00160405290816000820154815260200160018201805461102290611ebf565b80601f016020809104026020016040519081016040528092919081815260200182805461104e90611ebf565b801561109b5780601f106110705761010080835404028352916020019161109b565b820191906000526020600020905b81548152906001019060200180831161107e57829003601f168201915b50505050508152602001600282015481526020016003820160009054906101000a900460ff1660038111156110d3576110d26117c2565b5b60038111156110e5576110e46117c2565b5b8152602001600482015481526020016005820160009054906101000a900473ffffffffffffffffffffffffffffffffffffffff1673ffffffffffffffffffffffffffffffffffffffff1673ffffffffffffffffffffffffffffffffffffffff1681526020016006820154815250509050919050565b600160009054906101000a900473ffffffffffffffffffffffffffffffffffffffff1673ffffffffffffffffffffffffffffffffffffffff163373ffffffffffffffffffffffffffffffffffffffff16146111ea576040517f08c379a00000000000000000000000000000000000000000000000000000000081526004016111e19061221e565b60405180910390fd5b60006003600083815260200190815260200160002090506000816000015403611248576040517f08c379a000000000000000000000000000000000000000000000000000000000815260040161123f90611963565b60405180910390fd5b6001600381111561125c5761125b6117c2565b5b8160030160009054906101000a900460ff1660038111156112805761127f6117c2565b5b146112c0576040517f08c379a00000000000000000000000000000000000000000000000000000000081526004016112b79061228a565b60405180910390fd5b60028160030160006101000a81548160ff021916908360038111156112e8576112e76117c2565b5b02179055508060040154827f152d31e943f2d79d470375c901f5a6cfb7d465ee4969db651885948d3b6015b860405160405180910390a35050565b7f000000000000000000000000000000000000000000000000000000000000000081565b6040518060e001604052806000815260200160608152602001600081526020016000600381111561137b5761137a6117c2565b5b815260200160008152602001600073ffffffffffffffffffffffffffffffffffffffff168152602001600081525090565b600080fd5b600080fd5b6000819050919050565b6113c9816113b6565b81146113d457600080fd5b50565b6000813590506113e6816113c0565b92915050565b60008060408385031215611403576114026113ac565b5b6000611411858286016113d7565b9250506020611422858286016113d7565b9150509250929050565b600073ffffffffffffffffffffffffffffffffffffffff82169050919050565b6000819050919050565b600061147161146c6114678461142c565b61144c565b61142c565b9050919050565b600061148382611456565b9050919050565b600061149582611478565b9050919050565b6114a58161148a565b82525050565b60006020820190506114c0600083018461149c565b92915050565b6000602082840312156114dc576114db6113ac565b5b60006114ea848285016113d7565b91505092915050565b60008115159050919050565b611508816114f3565b82525050565b600060208201905061152360008301846114ff565b92915050565b60006115348261142c565b9050919050565b61154481611529565b82525050565b600060208201905061155f600083018461153b565b92915050565b61156e816113b6565b82525050565b60006020820190506115896000830184611565565b92915050565b61159881611529565b81146115a357600080fd5b50565b6000813590506115b58161158f565b92915050565b6000602082840312156115d1576115d06113ac565b5b60006115df848285016115a6565b91505092915050565b600080fd5b600080fd5b600080fd5b60008083601f84011261160d5761160c6115e8565b5b8235905067ffffffffffffffff81111561162a576116296115ed565b5b602083019150836001820283011115611646576116456115f2565b5b9250929050565b600080600060408486031215611666576116656113ac565b5b600084013567ffffffffffffffff811115611684576116836113b1565b5b611690868287016115f7565b935093505060206116a3868287016113d7565b9150509250925092565b6000819050919050565b6116c0816116ad565b81146116cb57600080fd5b50565b6000813590506116dd816116b7565b92915050565b600080604083850312156116fa576116f96113ac565b5b6000611708858286016113d7565b9250506020611719858286016116ce565b9150509250929050565b61172c816113b6565b82525050565b600081519050919050565b600082825260208201905092915050565b60005b8381101561176c578082015181840152602081019050611751565b60008484015250505050565b6000601f19601f8301169050919050565b600061179482611732565b61179e818561173d565b93506117ae81856020860161174e565b6117b781611778565b840191505092915050565b7f4e487b7100000000000000000000000000000000000000000000000000000000600052602160045260246000fd5b60048110611802576118016117c2565b5b50565b6000819050611813826117f1565b919050565b600061182382611805565b9050919050565b61183381611818565b82525050565b61184281611529565b82525050565b600060e0830160008301516118606000860182611723565b50602083015184820360208601526118788282611789565b915050604083015161188d6040860182611723565b5060608301516118a0606086018261182a565b5060808301516118b36080860182611723565b5060a08301516118c660a0860182611839565b5060c08301516118d960c0860182611723565b508091505092915050565b600060208201905081810360008301526118fe8184611848565b905092915050565b600082825260208201905092915050565b7f6a6f62206d697373696e67000000000000000000000000000000000000000000600082015250565b600061194d600b83611906565b915061195882611917565b602082019050919050565b6000602082019050818103600083015261197c81611940565b9050919050565b7f6e6f74206f70656e000000000000000000000000000000000000000000000000600082015250565b60006119b9600883611906565b91506119c482611983565b602082019050919050565b600060208201905081810360008301526119e8816119ac565b9050919050565b6119f8816114f3565b8114611a0357600080fd5b50565b600081519050611a15816119ef565b92915050565b600060208284031215611a3157611a306113ac565b5b6000611a3f84828501611a06565b91505092915050565b7f6167656e74206d697373696e6700000000000000000000000000000000000000600082015250565b6000611a7e600d83611906565b9150611a8982611a48565b602082019050919050565b60006020820190508181036000830152611aad81611a71565b9050919050565b600081519050611ac38161158f565b92915050565b600060208284031215611adf57611ade6113ac565b5b6000611aed84828501611ab4565b91505092915050565b7f6f6e6c79206167656e74206f776e657200000000000000000000000000000000600082015250565b6000611b2c601083611906565b9150611b3782611af6565b602082019050919050565b60006020820190508181036000830152611b5b81611b1f565b9050919050565b7f73656c66206465616c696e670000000000000000000000000000000000000000600082015250565b6000611b98600c83611906565b9150611ba382611b62565b602082019050919050565b60006020820190508181036000830152611bc781611b8b565b9050919050565b7f6f6e6c79206465706c6f79657200000000000000000000000000000000000000600082015250565b6000611c04600d83611906565b9150611c0f82611bce565b602082019050919050565b60006020820190508181036000830152611c3381611bf7565b9050919050565b7f7665726966696572207265717569726564000000000000000000000000000000600082015250565b6000611c70601183611906565b9150611c7b82611c3a565b602082019050919050565b60006020820190508181036000830152611c9f81611c63565b9050919050565b7f7665726966696572207365740000000000000000000000000000000000000000600082015250565b6000611cdc600c83611906565b9150611ce782611ca6565b602082019050919050565b60006020820190508181036000830152611d0b81611ccf565b9050919050565b7f6465736372697074696f6e207265717569726564000000000000000000000000600082015250565b6000611d48601483611906565b9150611d5382611d12565b602082019050919050565b60006020820190508181036000830152611d7781611d3b565b9050919050565b7f626f6e6420726571756972656400000000000000000000000000000000000000600082015250565b6000611db4600d83611906565b9150611dbf82611d7e565b602082019050919050565b60006020820190508181036000830152611de381611da7565b9050919050565b7f4e487b7100000000000000000000000000000000000000000000000000000000600052601160045260246000fd5b6000611e24826113b6565b91507fffffffffffffffffffffffffffffffffffffffffffffffffffffffffffffffff8203611e5657611e55611dea565b5b600182019050919050565b7f4e487b7100000000000000000000000000000000000000000000000000000000600052604160045260246000fd5b7f4e487b7100000000000000000000000000000000000000000000000000000000600052602260045260246000fd5b60006002820490506001821680611ed757607f821691505b602082108103611eea57611ee9611e90565b5b50919050565b60008190508160005260206000209050919050565b60006020601f8301049050919050565b600082821b905092915050565b600060088302611f527fffffffffffffffffffffffffffffffffffffffffffffffffffffffffffffffff82611f15565b611f5c8683611f15565b95508019841693508086168417925050509392505050565b6000611f8f611f8a611f85846113b6565b61144c565b6113b6565b9050919050565b6000819050919050565b611fa983611f74565b611fbd611fb582611f96565b848454611f22565b825550505050565b600090565b611fd2611fc5565b611fdd818484611fa0565b505050565b5b8181101561200157611ff6600082611fca565b600181019050611fe3565b5050565b601f8211156120465761201781611ef0565b61202084611f05565b8101602085101561202f578190505b61204361203b85611f05565b830182611fe2565b50505b505050565b600082821c905092915050565b60006120696000198460080261204b565b1980831691505092915050565b60006120828383612058565b9150826002028217905092915050565b61209b82611732565b67ffffffffffffffff8111156120b4576120b3611e61565b5b6120be8254611ebf565b6120c9828285612005565b600060209050601f8311600181146120fc57600084156120ea578287015190505b6120f48582612076565b86555061215c565b601f19841661210a86611ef0565b60005b828110156121325784890151825560018201915060208501945060208101905061210d565b8683101561214f578489015161214b601f891682612058565b8355505b6001600288020188555050505b505050505050565b82818337600083830152505050565b600061217f8385611906565b935061218c838584612164565b61219583611778565b840190509392505050565b600060408201905081810360008301526121bb818587612173565b90506121ca6020830184611565565b949350505050565b7f6f6e6c7920766572696669657200000000000000000000000000000000000000600082015250565b6000612208600d83611906565b9150612213826121d2565b602082019050919050565b60006020820190508181036000830152612237816121fb565b9050919050565b7f6e6f742061737369676e65640000000000000000000000000000000000000000600082015250565b6000612274600c83611906565b915061227f8261223e565b602082019050919050565b600060208201905081810360008301526122a381612267565b9050919050565b6122b3816116ad565b82525050565b60006020820190506122ce60008301846122aa565b9291505056fea264697066735822122004d8a3fc146072d9f802b686991d8f159474f7a2ab1f4d95060994db4135e78764736f6c63430008180033",
  "linkReferences": {},
  "deployedLinkReferences": {}
}