{
  "_format": "hh-sol-artifact-1",
  "contractName": "AgentRegistry",
  "sourceName": "contracts/AgentRegistry.sol",
  "abi": [
    {
      "anonymous": false,
      "inputs": [
        {
          "indexed": true,
          "internalType": "uint256",
          "name": "agentId",
          "type": "uint256"
        },
        {
          "indexed": false,
          "internalType": "string",
          "name": "name",
          "type": "string"
        },
        {
          "indexed": false,
          "internalType": "string",
          "name": "skills",
          "type": "string"
        },
        {
          "indexed": false,
          "internalType": "string",
          "name": "erc8004Id",
          "type": "string"
        },
        {
          "indexed": true,
          "internalType": "address",
          "name": "owner",
          "type": "address"
        },
        {
          "indexed": false,
          "internalType": "uint256",
          "name": "registeredAt",
          "type": "uint256"
        }
      ],
      "name": "AgentRegistered",
      "type": "event"
    },
    {
      "inputs": [],
      "name": "REGISTRATION_STAKE",
      "outputs": [
        {
          "internalType": "uint256",
          "name": "",
          "type": "uint256"
        }
      ],
      "stateMutability": "view",
      "type": "function"
    },
    {
      "inputs": [
        {
          "internalType": "uint256",
          "name": "agentId",
          "type": "uint256"
        }
      ],
      "name": "agentExists",
      "outputs": [
        {
          "internalType": "bool",
          "name": "",
          "type": "bool"
        }
      ],
      "stateMutability": "view",
      "type": "function"
    },
    {
      "inputs": [
        {
          "internalType": "uint256",
          "name": "agentId",
          "type": "uint256"
        }
      ],
      "name": "getAgent",
      "outputs": [
        {
          "components": [
            {
              "internalType": "uint256",
              "name": "agentId",
              "type": "uint256"
            },
            {
              "internalType": "string",
              "name": "name",
              "type": "string"
            },
            {
              "internalType": "string",
              "name": "skills",
              "type": "string"
            },
            {
              "internalType": "string",
              "name": "erc8004Id",
              "type": "string"
            },
            {
              "internalType": "address",
              "name": "owner",
              "type": "address"
            },
            {
              "internalType": "uint256",
              "name": "registeredAt",
              "type": "uint256"
            },
            {
              "internalType": "bool",
              "name": "exists",
              "type": "bool"
            }
          ],
          "internalType": "struct AgentRegistry.Agent",
          "name": "",
          "type": "tuple"
        }
      ],
      "stateMutability": "view",
      "type": "function"
    },
    {
      "inputs": [],
      "name": "nextAgentId",
      "outputs": [
        {
          "internalType": "uint256",
          "name": "",
          "type": "uint256"
        }
      ],
      "stateMutability": "view",
      "type": "function"
    },
    {
      "inputs": [
        {
          "internalType": "uint256",
          "name": "agentId",
          "type": "uint256"
        }
      ],
      "name": "ownerOf",
      "outputs": [
        {
          "internalType": "address",
          "name": "",
          "type": "address"
        }
      ],
      "stateMutability": "view",
      "type": "function"
    },
    {
      "inputs": [
        {
          "internalType": "string",
          "name": "name",
          "type": "string"
        },
        {
          "internalType": "string",
          "name": "skills",
          "type": "string"
        },
        {
          "internalType": "string",
          "name": "erc8004Id",
          "type": "string"
        }
      ],
      "name": "registerAgent",
      "outputs": [
        {
          "internalType": "uint256",
          "name": "agentId",
          "type": "uint256"
        }
      ],
      "stateMutability": "payable",
      "type": "function"
    }
  ],
  "bytecode": "0x6080604052600160005534801561001557600080fd5b50611207806100256000396000f3fe6080604052600436106100555760003560e01c80632de5aaf71461005a57806330efc498146100975780633135a105146100c257806356a2d660146100ed5780636352211e1461011d578063de99f1571461015a575b600080fd5b34801561006657600080fd5b50610081600480360381019061007c91906108d1565b610197565b60405161008e9190610aa3565b60405180910390f35b3480156100a357600080fd5b506100ac610462565b6040516100b99190610ad4565b60405180910390f35b3480156100ce57600080fd5b506100d7610468565b6040516100e49190610ad4565b60405180910390f35b61010760048036038101906101029190610b54565b610473565b6040516101149190610ad4565b60405180910390f35b34801561012957600080fd5b50610144600480360381019061013f91906108d1565b61076c565b6040516101519190610c17565b60405180910390f35b34801561016657600080fd5b50610181600480360381019061017c91906108d1565b61080f565b60405161018e9190610c41565b60405180910390f35b61019f61083c565b6001600083815260200190815260200160002060060160009054906101000a900460ff16610202576040517f08c379a00000000000000000000000000000000000000000000000000000000081526004016101f990610cb9565b60405180910390fd5b600160008381526020019081526020016000206040518060e00160405290816000820154815260200160018201805461023a90610d08565b80601f016020809104026020016040519081016040528092919081815260200182805461026690610d08565b80156102b35780601f10610288576101008083540402835291602001916102b3565b820191906000526020600020905b81548152906001019060200180831161029657829003601f168201915b505050505081526020016002820180546102cc90610d08565b80601f01602080910402602001604051908101604052809291908181526020018280546102f890610d08565b80156103455780601f1061031a57610100808354040283529160200191610345565b820191906000526020600020905b81548152906001019060200180831161032857829003601f168201915b5050505050815260200160038201805461035e90610d08565b80601f016020809104026020016040519081016040528092919081815260200182805461038a90610d08565b80156103d75780601f106103ac576101008083540402835291602001916103d7565b820191906000526020600020905b8154815290600101906020018083116103ba57829003601f168201915b505050505081526020016004820160009054906101000a900473ffffffffffffffffffffffffffffffffffffffff1673ffffffffffffffffffffffffffffffffffffffff1673ffffffffffffffffffffffffffffffffffffffff168152602001600582015481526020016006820160009054906101000a900460ff1615151515815250509050919050565b60005481565b662386f26fc1000081565b60008087879050116104ba576040517f08c379a00000000000000000000000000000000000000000000000000000000081526004016104b190610d85565b60405180910390fd5b662386f26fc10000341015610504576040517f08c379a00000000000000000000000000000000000000000000000000000000081526004016104fb90610df1565b60405180910390fd5b60008081548092919061051690610e40565b9190505590506040518060e0016040528082815260200188888080601f016020809104026020016040519081016040528093929190818152602001838380828437600081840152601f19601f82011690508083019250505050505050815260200186868080601f016020809104026020016040519081016040528093929190818152602001838380828437600081840152601f19601f82011690508083019250505050505050815260200184848080601f016020809104026020016040519081016040528093929190818152602001838380828437600081840152601f19601f8201169050808301925050505050505081526020013373ffffffffffffffffffffffffffffffffffffffff16815260200142815260200160011515815250600160008381526020019081526020016000206000820151816000015560208201518160010190816106669190611063565b50604082015181600201908161067c9190611063565b5060608201518160030190816106929190611063565b5060808201518160040160006101000a81548173ffffffffffffffffffffffffffffffffffffffff021916908373ffffffffffffffffffffffffffffffffffffffff16021790555060a0820151816005015560c08201518160060160006101000a81548160ff0219169083151502179055509050503373ffffffffffffffffffffffffffffffffffffffff16817f8eefd7aaef2d96aa19a43b7ad56199229cf891c01e9a20e27a9a57335ff305928989898989894260405161075a9796959493929190611171565b60405180910390a39695505050505050565b60006001600083815260200190815260200160002060060160009054906101000a900460ff166107d1576040517f08c379a00000000000000000000000000000000000000000000000000000000081526004016107c890610cb9565b60405180910390fd5b6001600083815260200190815260200160002060040160009054906101000a900473ffffffffffffffffffffffffffffffffffffffff169050919050565b60006001600083815260200190815260200160002060060160009054906101000a900460ff169050919050565b6040518060e0016040528060008152602001606081526020016060815260200160608152602001600073ffffffffffffffffffffffffffffffffffffffff168152602001600081526020016000151581525090565b600080fd5b600080fd5b6000819050919050565b6108ae8161089b565b81146108b957600080fd5b50565b6000813590506108cb816108a5565b92915050565b6000602082840312156108e7576108e6610891565b5b60006108f5848285016108bc565b91505092915050565b6109078161089b565b82525050565b600081519050919050565b600082825260208201905092915050565b60005b8381101561094757808201518184015260208101905061092c565b60008484015250505050565b6000601f19601f8301169050919050565b600061096f8261090d565b6109798185610918565b9350610989818560208601610929565b61099281610953565b840191505092915050565b600073ffffffffffffffffffffffffffffffffffffffff82169050919050565b60006109c88261099d565b9050919050565b6109d8816109bd565b82525050565b60008115159050919050565b6109f3816109de565b82525050565b600060e083016000830151610a1160008601826108fe565b5060208301518482036020860152610a298282610964565b91505060408301518482036040860152610a438282610964565b91505060608301518482036060860152610a5d8282610964565b9150506080830151610a7260808601826109cf565b5060a0830151610a8560a08601826108fe565b5060c0830151610a9860c08601826109ea565b508091505092915050565b60006020820190508181036000830152610abd81846109f9565b905092915050565b610ace8161089b565b82525050565b6000602082019050610ae96000830184610ac5565b92915050565b600080fd5b600080fd5b600080fd5b60008083601f840112610b1457610b13610aef565b5b8235905067ffffffffffffffff811115610b3157610b30610af4565b5b602083019150836001820283011115610b4d57610b4c610af9565b5b9250929050565b60008060008060008060608789031215610b7157610b70610891565b5b600087013567ffffffffffffffff811115610b8f57610b8e610896565b5b610b9b89828a01610afe565b9650965050602087013567ffffffffffffffff811115610bbe57610bbd610896565b5b610bca89828a01610afe565b9450945050604087013567ffffffffffffffff811115610bed57610bec610896565b5b610bf989828a01610afe565b92509250509295509295509295565b610c11816109bd565b82525050565b6000602082019050610c2c6000830184610c08565b92915050565b610c3b816109de565b82525050565b6000602082019050610c566000830184610c32565b92915050565b600082825260208201905092915050565b7f6167656e74206d697373696e6700000000000000000000000000000000000000600082015250565b6000610ca3600d83610c5c565b9150610cae82610c6d565b602082019050919050565b60006020820190508181036000830152610cd281610c96565b9050919050565b7f4e487b7100000000000000000000000000000000000000000000000000000000600052602260045260246000fd5b60006002820490506001821680610d2057607f821691505b602082108103610d3357610d32610cd9565b5b50919050565b7f6e616d6520726571756972656400000000000000000000000000000000000000600082015250565b6000610d6f600d83610c5c565b9150610d7a82610d39565b602082019050919050565b60006020820190508181036000830152610d9e81610d62565b9050919050565b7f7374616b65207265717569726564000000000000000000000000000000000000600082015250565b6000610ddb600e83610c5c565b9150610de682610da5565b602082019050919050565b60006020820190508181036000830152610e0a81610dce565b9050919050565b7f4e487b7100000000000000000000000000000000000000000000000000000000600052601160045260246000fd5b6000610e4b8261089b565b91507fffffffffffffffffffffffffffffffffffffffffffffffffffffffffffffffff8203610e7d57610e7c610e11565b5b600182019050919050565b7f4e487b7100000000000000000000000000000000000000000000000000000000600052604160045260246000fd5b60008190508160005260206000209050919050565b60006020601f8301049050919050565b600082821b905092915050565b600060088302610f197fffffffffffffffffffffffffffffffffffffffffffffffffffffffffffffffff82610edc565b610f238683610edc565b95508019841693508086168417925050509392505050565b6000819050919050565b6000610f60610f5b610f568461089b565b610f3b565b61089b565b9050919050565b6000819050919050565b610f7a83610f45565b610f8e610f8682610f67565b848454610ee9565b825550505050565b600090565b610fa3610f96565b610fae818484610f71565b505050565b5b81811015610fd257610fc7600082610f9b565b600181019050610fb4565b5050565b601f82111561101757610fe881610eb7565b610ff184610ecc565b81016020851015611000578190505b61101461100c85610ecc565b830182610fb3565b50505b505050565b600082821c905092915050565b600061103a6000198460080261101c565b1980831691505092915050565b60006110538383611029565b9150826002028217905092915050565b61106c8261090d565b67ffffffffffffffff81111561108557611084610e88565b5b61108f8254610d08565b61109a828285610fd6565b600060209050601f8311600181146110cd57600084156110bb578287015190505b6110c58582611047565b86555061112d565b601f1984166110db86610eb7565b60005b82811015611103578489015182556001820191506020850194506020810190506110de565b86831015611120578489015161111c601f891682611029565b8355505b6001600288020188555050505b505050505050565b82818337600083830152505050565b60006111508385610c5c565b935061115d838584611135565b61116683610953565b840190509392505050565b6000608082019050818103600083015261118c81898b611144565b905081810360208301526111a1818789611144565b905081810360408301526111b6818587611144565b90506111c56060830184610ac5565b9897505050505050505056fea2646970667358221220936300a10527ff876c5b9a09bf43bca4ca0c220c9882700c76a05b6dfd26091664736f6c63430008180033",
  "linkReferences": {},
  "deployedLinkReferences": {}
}